{
  "contractName": "PowerCoinMeter",
  "abi": [
    {
      "constant": false,
      "inputs": [
        {
          "name": "_timeDuration",
          "type": "uint256"
        },
        {
          "name": "_powerConsumed",
          "type": "uint256"
        }
      ],
      "name": "buyConsumedPower",
      "outputs": [],
      "payable": true,
      "type": "function"
    },
    {
      "constant": false,
      "inputs": [
        {
          "name": "_nonce",
          "type": "uint256"
        },
        {
          "name": "_time",
          "type": "uint256"
        },
        {
          "name": "_add_production",
          "type": "uint256"
        }
      ],
      "name": "updateReading",
      "outputs": [],
      "payable": false,
      "type": "function"
    },
    {
      "constant": true,
      "inputs": [],
      "name": "pay_amount",
      "outputs": [
        {
          "name": "",
          "type": "uint256"
        }
      ],
      "payable": false,
      "type": "function"
    },
    {
      "constant": true,
      "inputs": [],
      "name": "last_reading_nonce",
      "outputs": [
        {
          "name": "",
          "type": "uint256"
        }
      ],
      "payable": false,
      "type": "function"
    },
    {
      "constant": true,
      "inputs": [],
      "name": "last_reading_time",
      "outputs": [
        {
          "name": "",
          "type": "uint256"
        }
      ],
      "payable": false,
      "type": "function"
    },
    {
      "constant": true,
      "inputs": [],
      "name": "powerSupply",
      "outputs": [
        {
          "name": "",
          "type": "uint256"
        }
      ],
      "payable": false,
      "type": "function"
    },
    {
      "constant": true,
      "inputs": [],
      "name": "sell_price",
      "outputs": [
        {
          "name": "",
          "type": "uint256"
        }
      ],
      "payable": false,
      "type": "function"
    },
    {
      "constant": false,
      "inputs": [
        {
          "name": "_price",
          "type": "uint256"
        }
      ],
      "name": "changePowerPrice",
      "outputs": [],
      "payable": false,
      "type": "function"
    },
    {
      "constant": true,
      "inputs": [],
      "name": "meterOwner",
      "outputs": [
        {
          "name": "",
          "type": "address"
        }
      ],
      "payable": false,
      "type": "function"
    },
    {
      "constant": true,
      "inputs": [],
      "name": "get_powerSupply",
      "outputs": [
        {
          "name": "",
          "type": "uint256"
        }
      ],
      "payable": false,
      "type": "function"
    },
    {
      "constant": false,
      "inputs": [
        {
          "name": "_newMeterOwner",
          "type": "address"
        }
      ],
      "name": "changeMeterOwner",
      "outputs": [],
      "payable": false,
      "type": "function"
    },
    {
      "inputs": [],
      "payable": false,
      "type": "constructor"
    },
    {
      "payable": false,
      "type": "fallback"
    },
    {
      "anonymous": false,
      "inputs": [
        {
          "indexed": false,
          "name": "newPrice",
          "type": "uint256"
        }
      ],
      "name": "priceChanged",
      "type": "event"
    }
  ],
  "bytecode": "0x6060604052341561000f57600080fd5b336000806101000a81548173ffffffffffffffffffffffffffffffffffffffff021916908373ffffffffffffffffffffffffffffffffffffffff1602179055506000600281905550426003819055506000600481905550600060058190555061065e8061007d6000396000f3006060604052600436106100ae576000357c0100000000000000000000000000000000000000000000000000000000900463ffffffff16806266ed07146100be5780630130b97e146100df5780632453fca31461011457806327ff96381461013d57806337eb2001146101665780633861447f1461018f5780635fb99872146101b8578063a836e454146101e1578063b445db6814610204578063bdc9319c14610259578063d223ec2f14610282575b34156100b957600080fd5b600080fd5b6100dd60048080359060200190919080359060200190919050506102bb565b005b34156100ea57600080fd5b6101126004808035906020019091908035906020019091908035906020019091905050610401565b005b341561011f57600080fd5b610127610426565b6040518082815260200191505060405180910390f35b341561014857600080fd5b61015061042c565b6040518082815260200191505060405180910390f35b341561017157600080fd5b610179610432565b6040518082815260200191505060405180910390f35b341561019a57600080fd5b6101a2610438565b6040518082815260200191505060405180910390f35b34156101c357600080fd5b6101cb61043e565b6040518082815260200191505060405180910390f35b34156101ec57600080fd5b6102026004808035906020019091905050610444565b005b341561020f57600080fd5b6102176104e0565b604051808273ffffffffffffffffffffffffffffffffffffffff1673ffffffffffffffffffffffffffffffffffffffff16815260200191505060405180910390f35b341561026457600080fd5b61026c610505565b6040518082815260200191505060405180910390f35b341561028d57600080fd5b6102b9600480803573ffffffffffffffffffffffffffffffffffffffff1690602001909190505061050f565b005b60045481118061030c575042600160003373ffffffffffffffffffffffffffffffffffffffff1673ffffffffffffffffffffffffffffffffffffffff16815260200190815260200160002060010154115b8061031a5750600060055411155b1561032457600080fd5b610330816005546105ad565b6006819055506000809054906101000a900473ffffffffffffffffffffffffffffffffffffffff1673ffffffffffffffffffffffffffffffffffffffff166108fc349081150290604051600060405180830381858888f19350505050156103f85761039b42836105e0565b600160003373ffffffffffffffffffffffffffffffffffffffff1673ffffffffffffffffffffffffffffffffffffffff168152602001908152602001600020600101819055506103ed6004548261060a565b6004819055506103fd565b600080fd5b5050565b61040d600454826105e0565b6004819055508260028190555081600381905550505050565b60065481565b60025481565b60035481565b60045481565b60055481565b6000809054906101000a900473ffffffffffffffffffffffffffffffffffffffff1673ffffffffffffffffffffffffffffffffffffffff163373ffffffffffffffffffffffffffffffffffffffff1614151561049f57600080fd5b806005819055507ff5fdf7223faf019b846dd0f35f25876f2b97118d4f6e9d6787ea6d85a55c2143816040518082815260200191505060405180910390a150565b6000809054906101000a900473ffffffffffffffffffffffffffffffffffffffff1681565b6000600454905090565b6000809054906101000a900473ffffffffffffffffffffffffffffffffffffffff1673ffffffffffffffffffffffffffffffffffffffff163373ffffffffffffffffffffffffffffffffffffffff1614151561056a57600080fd5b806000806101000a81548173ffffffffffffffffffffffffffffffffffffffff021916908373ffffffffffffffffffffffffffffffffffffffff16021790555050565b60008082840290506105d660008514806105d157508385838115156105ce57fe5b04145b610623565b8091505092915050565b60008082840190506106008482101580156105fb5750838210155b610623565b8091505092915050565b600061061883831115610623565b818303905092915050565b80151561062f57600080fd5b505600a165627a7a72305820baa2d6663a19be4063f5260e4e6df357407c1efc81b9ada6ff3ddb8f477eabc00029",
  "source": "pragma solidity ^0.4.4;\n\ncontract SafeMath {\n\n    function safeMul(uint a, uint b) constant internal returns(uint) {\n        uint c = a * b;\n        assert(a == 0 || c / a == b);\n        return c;\n    }\n\n    function safeSub(uint a, uint b) constant internal returns(uint) {\n        assert(b <= a);\n        return a - b;\n    }\n\n    function safeAdd(uint a, uint b) constant internal returns(uint) {\n        uint c = a + b;\n        assert(c >= a && c >= b);\n        return c;\n    }\n/*\n    function safeDiv(uint a, uint b) constant internal returns (uint) {\n        assert(b > 0);\n        uint c = a / b;\n        assert(a == b * c + a % b);\n        return c;\n    }\n*/\n    function assert(bool assertion) internal {\n        if(!assertion) throw;\n    }\n}\n\ncontract PowerCoinMeter is SafeMath {\n    address public meterOwner;\n    mapping(address => Consumers) powerConsumers;\n\n    event priceChanged(uint newPrice);\n\n    // @Dev     Info on data interval\n    // @Dev     *NOTE* Not sure if needed\n    uint256 public last_reading_nonce;\n    uint256 public last_reading_time;\n\n    // @Dev     Use Power Production (Supply) and Consumption (Demand)\n    uint256 public powerSupply;\n\n    // Pricing\n    uint256 public sell_price;\n    uint256 public pay_amount;\n\n    struct Consumers {\n        uint256 demandAmount;\n        uint256 timeDuration;\n    }\n\n    // @Dev     Constructor function to set up meter\n    function PowerCoinMeter() {\n        meterOwner = msg.sender;\n        last_reading_nonce = 0;\n        last_reading_time = now;\n        powerSupply = 0;\n        sell_price = 0;\n    }\n\n    function buyConsumedPower (uint256 _timeDuration, uint256 _powerConsumed) payable {\n        if(_powerConsumed > powerSupply\n            || powerConsumers[msg.sender].timeDuration > now\n            || sell_price <= 0 ) throw;\n\n        pay_amount = safeMul(_powerConsumed, sell_price);\n\n        // @Dev     Attempt to pay powerProducer\n        if(meterOwner.send(msg.value)) {\n            powerConsumers[msg.sender].timeDuration = safeAdd(now, _timeDuration);\n            powerSupply = safeSub(powerSupply, _powerConsumed);\n        } else {\n            throw;\n        }\n    }\n\n    // @Dev     Set new electricity price (Wei / kwH)\n    // @Dev     Only allow owner to change set price\n    function changePowerPrice(uint256 _price) {\n        if(msg.sender != meterOwner) throw;\n        sell_price = _price;\n        priceChanged(_price);\n    }\n\n    // @Dev     Update power supply from data feed\n    // @Param1  Nonce value for each update call\n    // @Param2  Update time (either block time or real time)\n    // @Param3  New electricity production in time interval\n    function updateReading(uint256 _nonce, uint256 _time, uint256 _add_production) {\n        /*if(msg.sender != meterOwner\n            || _nonce <= last_reading_nonce) throw;*/\n\n        powerSupply = safeAdd(powerSupply, _add_production);\n        last_reading_nonce = _nonce;\n        last_reading_time = _time;\n    }\n\n    // @Dev     Check supply of available power for sale\n    function get_powerSupply() constant returns(uint256) {\n        return powerSupply;\n    }\n\n    // @Dev     Existing owner choose new owner\n    // @Param1  Designate new owner\n    function changeMeterOwner(address _newMeterOwner) {\n        if(msg.sender != meterOwner) throw;\n        meterOwner = _newMeterOwner;\n    }\n\n    // @Dev     Throw out non-function calls\n    function() {\n        throw;\n    }\n}\n",
  "sourcePath": "/home/lightswarm/projects/personal/PowerCoin/contracts/PowerCoinMeter.sol",
  "compiler": {
    "name": "solc",
    "version": "0.4.18+commit.9cf6e910.Emscripten.clang"
  },
  "schemaVersion": "1.0.1",
  "updatedAt": "2018-02-27T03:08:37.399Z"
}